{
  "contractName": "AwesomeTokenNew",
  "abi": [
    {
      "inputs": [
        {
          "internalType": "uint256",
          "name": "initialSupply",
          "type": "uint256"
        },
        {
          "internalType": "string",
          "name": "tokenName",
          "type": "string"
        },
        {
          "internalType": "string",
          "name": "tokenSymbol",
          "type": "string"
        }
      ],
      "stateMutability": "nonpayable",
      "type": "constructor"
    },
    {
      "anonymous": false,
      "inputs": [
        {
          "indexed": true,
          "internalType": "address",
          "name": "_owner",
          "type": "address"
        },
        {
          "indexed": true,
          "internalType": "address",
          "name": "_spender",
          "type": "address"
        },
        {
          "indexed": false,
          "internalType": "uint256",
          "name": "_value",
          "type": "uint256"
        }
      ],
      "name": "Approval",
      "type": "event"
    },
    {
      "anonymous": false,
      "inputs": [
        {
          "indexed": true,
          "internalType": "address",
          "name": "_from",
          "type": "address"
        },
        {
          "indexed": true,
          "internalType": "address",
          "name": "_to",
          "type": "address"
        },
        {
          "indexed": false,
          "internalType": "uint256",
          "name": "_value",
          "type": "uint256"
        }
      ],
      "name": "Migrate",
      "type": "event"
    },
    {
      "anonymous": false,
      "inputs": [
        {
          "indexed": true,
          "internalType": "address",
          "name": "from",
          "type": "address"
        },
        {
          "indexed": true,
          "internalType": "address",
          "name": "to",
          "type": "address"
        },
        {
          "indexed": false,
          "internalType": "uint256",
          "name": "value",
          "type": "uint256"
        }
      ],
      "name": "Transfer",
      "type": "event"
    },
    {
      "inputs": [
        {
          "internalType": "address",
          "name": "",
          "type": "address"
        },
        {
          "internalType": "address",
          "name": "",
          "type": "address"
        }
      ],
      "name": "allowance",
      "outputs": [
        {
          "internalType": "uint256",
          "name": "",
          "type": "uint256"
        }
      ],
      "stateMutability": "view",
      "type": "function",
      "constant": true
    },
    {
      "inputs": [
        {
          "internalType": "address",
          "name": "",
          "type": "address"
        }
      ],
      "name": "balanceOf",
      "outputs": [
        {
          "internalType": "uint256",
          "name": "",
          "type": "uint256"
        }
      ],
      "stateMutability": "view",
      "type": "function",
      "constant": true
    },
    {
      "inputs": [],
      "name": "decimals",
      "outputs": [
        {
          "internalType": "uint8",
          "name": "",
          "type": "uint8"
        }
      ],
      "stateMutability": "view",
      "type": "function",
      "constant": true
    },
    {
      "inputs": [],
      "name": "isMigrationStarted",
      "outputs": [
        {
          "internalType": "bool",
          "name": "",
          "type": "bool"
        }
      ],
      "stateMutability": "view",
      "type": "function",
      "constant": true
    },
    {
      "inputs": [],
      "name": "isOwnerCandidat",
      "outputs": [
        {
          "internalType": "bool",
          "name": "",
          "type": "bool"
        }
      ],
      "stateMutability": "view",
      "type": "function",
      "constant": true
    },
    {
      "inputs": [],
      "name": "migrationAgent",
      "outputs": [
        {
          "internalType": "contract MigrationAgent",
          "name": "",
          "type": "address"
        }
      ],
      "stateMutability": "view",
      "type": "function",
      "constant": true
    },
    {
      "inputs": [],
      "name": "name",
      "outputs": [
        {
          "internalType": "string",
          "name": "",
          "type": "string"
        }
      ],
      "stateMutability": "view",
      "type": "function",
      "constant": true
    },
    {
      "inputs": [],
      "name": "owner",
      "outputs": [
        {
          "internalType": "address",
          "name": "",
          "type": "address"
        }
      ],
      "stateMutability": "view",
      "type": "function",
      "constant": true
    },
    {
      "inputs": [
        {
          "internalType": "address",
          "name": "newOwner",
          "type": "address"
        }
      ],
      "name": "setNewOwnerCandidat",
      "outputs": [],
      "stateMutability": "nonpayable",
      "type": "function"
    },
    {
      "inputs": [],
      "name": "symbol",
      "outputs": [
        {
          "internalType": "string",
          "name": "",
          "type": "string"
        }
      ],
      "stateMutability": "view",
      "type": "function",
      "constant": true
    },
    {
      "inputs": [],
      "name": "takeOwnership",
      "outputs": [],
      "stateMutability": "nonpayable",
      "type": "function"
    },
    {
      "inputs": [],
      "name": "totalMigrated",
      "outputs": [
        {
          "internalType": "uint256",
          "name": "",
          "type": "uint256"
        }
      ],
      "stateMutability": "view",
      "type": "function",
      "constant": true
    },
    {
      "inputs": [],
      "name": "totalSupply",
      "outputs": [
        {
          "internalType": "uint256",
          "name": "",
          "type": "uint256"
        }
      ],
      "stateMutability": "view",
      "type": "function",
      "constant": true
    },
    {
      "inputs": [
        {
          "internalType": "address",
          "name": "_to",
          "type": "address"
        },
        {
          "internalType": "uint256",
          "name": "_value",
          "type": "uint256"
        }
      ],
      "name": "transfer",
      "outputs": [
        {
          "internalType": "bool",
          "name": "success",
          "type": "bool"
        }
      ],
      "stateMutability": "nonpayable",
      "type": "function"
    },
    {
      "inputs": [
        {
          "internalType": "address",
          "name": "_from",
          "type": "address"
        },
        {
          "internalType": "address",
          "name": "_to",
          "type": "address"
        },
        {
          "internalType": "uint256",
          "name": "_value",
          "type": "uint256"
        }
      ],
      "name": "transferFrom",
      "outputs": [
        {
          "internalType": "bool",
          "name": "success",
          "type": "bool"
        }
      ],
      "stateMutability": "nonpayable",
      "type": "function"
    },
    {
      "inputs": [
        {
          "internalType": "address",
          "name": "_spender",
          "type": "address"
        },
        {
          "internalType": "uint256",
          "name": "_value",
          "type": "uint256"
        }
      ],
      "name": "approve",
      "outputs": [
        {
          "internalType": "bool",
          "name": "success",
          "type": "bool"
        }
      ],
      "stateMutability": "nonpayable",
      "type": "function"
    },
    {
      "inputs": [
        {
          "internalType": "address",
          "name": "_agent",
          "type": "address"
        }
      ],
      "name": "setMigrationAgent",
      "outputs": [],
      "stateMutability": "nonpayable",
      "type": "function"
    },
    {
      "inputs": [
        {
          "internalType": "uint256",
          "name": "_value",
          "type": "uint256"
        }
      ],
      "name": "migrate",
      "outputs": [],
      "stateMutability": "nonpayable",
      "type": "function"
    },
    {
      "inputs": [],
      "name": "finalizeMigration",
      "outputs": [],
      "stateMutability": "nonpayable",
      "type": "function"
    }
  ],
  "bytecode": "0x60806040526012600460006101000a81548160ff021916908360ff1602179055503480156200002d57600080fd5b5060405162001ff838038062001ff88339818101604052810190620000539190620003d0565b336000806101000a81548173ffffffffffffffffffffffffffffffffffffffff021916908373ffffffffffffffffffffffffffffffffffffffff160217905550600460009054906101000a900460ff1660ff16600a620000b49190620005ed565b83620000c191906200063e565b600581905550600554600660003373ffffffffffffffffffffffffffffffffffffffff1673ffffffffffffffffffffffffffffffffffffffff1681526020019081526020016000208190555081600290805190602001906200012592919062000148565b5080600390805190602001906200013e92919062000148565b5050505062000704565b8280546200015690620006ce565b90600052602060002090601f0160209004810192826200017a5760008555620001c6565b82601f106200019557805160ff1916838001178555620001c6565b82800160010185558215620001c6579182015b82811115620001c5578251825591602001919060010190620001a8565b5b509050620001d59190620001d9565b5090565b5b80821115620001f4576000816000905550600101620001da565b5090565b6000604051905090565b600080fd5b600080fd5b6000819050919050565b62000221816200020c565b81146200022d57600080fd5b50565b600081519050620002418162000216565b92915050565b600080fd5b600080fd5b6000601f19601f8301169050919050565b7f4e487b7100000000000000000000000000000000000000000000000000000000600052604160045260246000fd5b6200029c8262000251565b810181811067ffffffffffffffff82111715620002be57620002bd62000262565b5b80604052505050565b6000620002d3620001f8565b9050620002e1828262000291565b919050565b600067ffffffffffffffff82111562000304576200030362000262565b5b6200030f8262000251565b9050602081019050919050565b60005b838110156200033c5780820151818401526020810190506200031f565b838111156200034c576000848401525b50505050565b6000620003696200036384620002e6565b620002c7565b9050828152602081018484840111156200038857620003876200024c565b5b620003958482856200031c565b509392505050565b600082601f830112620003b557620003b462000247565b5b8151620003c784826020860162000352565b91505092915050565b600080600060608486031215620003ec57620003eb62000202565b5b6000620003fc8682870162000230565b935050602084015167ffffffffffffffff81111562000420576200041f62000207565b5b6200042e868287016200039d565b925050604084015167ffffffffffffffff81111562000452576200045162000207565b5b62000460868287016200039d565b9150509250925092565b7f4e487b7100000000000000000000000000000000000000000000000000000000600052601160045260246000fd5b60008160011c9050919050565b6000808291508390505b6001851115620004f857808604811115620004d057620004cf6200046a565b5b6001851615620004e05780820291505b8081029050620004f08562000499565b9450620004b0565b94509492505050565b600082620005135760019050620005e6565b81620005235760009050620005e6565b81600181146200053c576002811462000547576200057d565b6001915050620005e6565b60ff8411156200055c576200055b6200046a565b5b8360020a9150848211156200057657620005756200046a565b5b50620005e6565b5060208310610133831016604e8410600b8410161715620005b75782820a905083811115620005b157620005b06200046a565b5b620005e6565b620005c68484846001620004a6565b92509050818404811115620005e057620005df6200046a565b5b81810290505b9392505050565b6000620005fa826200020c565b915062000607836200020c565b9250620006367fffffffffffffffffffffffffffffffffffffffffffffffffffffffffffffffff848462000501565b905092915050565b60006200064b826200020c565b915062000658836200020c565b9250817fffffffffffffffffffffffffffffffffffffffffffffffffffffffffffffffff04831182151516156200069457620006936200046a565b5b828202905092915050565b7f4e487b7100000000000000000000000000000000000000000000000000000000600052602260045260246000fd5b60006002820490506001821680620006e757607f821691505b60208210811415620006fe57620006fd6200069f565b5b50919050565b6118e480620007146000396000f3fe608060405234801561001057600080fd5b50600436106101215760003560e01c806370a08231116100ad57806395d89b411161007157806395d89b41146102e6578063a9059cbb14610304578063b78b608714610334578063c3d081051461033e578063dd62ed3e1461035c57610121565b806370a082311461024057806375e2ff65146102705780638328dbcd1461028c5780638da5cb5b146102aa57806395a0f5eb146102c857610121565b806323b872dd116100f457806323b872dd146101ae578063313ce567146101de578063454b0608146101fc578063605361721461021857806360d0eb731461022257610121565b806306fdde031461012657806307af9d8e14610144578063095ea7b31461016057806318160ddd14610190575b600080fd5b61012e61038c565b60405161013b91906110c2565b60405180910390f35b61015e60048036038101906101599190611147565b61041a565b005b61017a600480360381019061017591906111aa565b6104ec565b6040516101879190611205565b60405180910390f35b6101986105de565b6040516101a5919061122f565b60405180910390f35b6101c860048036038101906101c3919061124a565b6105e4565b6040516101d59190611205565b60405180910390f35b6101e6610718565b6040516101f391906112b9565b60405180910390f35b610216600480360381019061021191906112d4565b61072b565b005b6102206109e1565b005b61022a610ab3565b6040516102379190611205565b60405180910390f35b61025a60048036038101906102559190611147565b610ac6565b604051610267919061122f565b60405180910390f35b61028a60048036038101906102859190611147565b610ade565b005b610294610c5c565b6040516102a19190611360565b60405180910390f35b6102b2610c82565b6040516102bf919061138a565b60405180910390f35b6102d0610ca6565b6040516102dd919061122f565b60405180910390f35b6102ee610cac565b6040516102fb91906110c2565b60405180910390f35b61031e600480360381019061031991906111aa565b610d3a565b60405161032b9190611205565b60405180910390f35b61033c610d51565b005b610346610e40565b6040516103539190611205565b60405180910390f35b610376600480360381019061037191906113a5565b610e98565b604051610383919061122f565b60405180910390f35b6002805461039990611414565b80601f01602080910402602001604051908101604052809291908181526020018280546103c590611414565b80156104125780601f106103e757610100808354040283529160200191610412565b820191906000526020600020905b8154815290600101906020018083116103f557829003601f168201915b505050505081565b60008054906101000a900473ffffffffffffffffffffffffffffffffffffffff1673ffffffffffffffffffffffffffffffffffffffff163373ffffffffffffffffffffffffffffffffffffffff16146104a8576040517f08c379a000000000000000000000000000000000000000000000000000000000815260040161049f90611492565b60405180910390fd5b80600160006101000a81548173ffffffffffffffffffffffffffffffffffffffff021916908373ffffffffffffffffffffffffffffffffffffffff16021790555050565b600081600760003373ffffffffffffffffffffffffffffffffffffffff1673ffffffffffffffffffffffffffffffffffffffff16815260200190815260200160002060008573ffffffffffffffffffffffffffffffffffffffff1673ffffffffffffffffffffffffffffffffffffffff168152602001908152602001600020819055508273ffffffffffffffffffffffffffffffffffffffff163373ffffffffffffffffffffffffffffffffffffffff167f8c5be1e5ebec7d5bd14f71427d1e84f3dd0314c0f7b2291e5b200ac8c7c3b925846040516105cc919061122f565b60405180910390a36001905092915050565b60055481565b6000600760008573ffffffffffffffffffffffffffffffffffffffff1673ffffffffffffffffffffffffffffffffffffffff16815260200190815260200160002060003373ffffffffffffffffffffffffffffffffffffffff1673ffffffffffffffffffffffffffffffffffffffff1681526020019081526020016000205482111561066f57600080fd5b81600760008673ffffffffffffffffffffffffffffffffffffffff1673ffffffffffffffffffffffffffffffffffffffff16815260200190815260200160002060003373ffffffffffffffffffffffffffffffffffffffff1673ffffffffffffffffffffffffffffffffffffffff16815260200190815260200160002060008282546106fb91906114e1565b9250508190555061070d848484610ebd565b600190509392505050565b600460009054906101000a900460ff1681565b600a60009054906101000a900460ff1661077a576040517f08c379a000000000000000000000000000000000000000000000000000000000815260040161077190611561565b60405180910390fd5b60008114156107be576040517f08c379a00000000000000000000000000000000000000000000000000000000081526004016107b5906115cd565b60405180910390fd5b600660003373ffffffffffffffffffffffffffffffffffffffff1673ffffffffffffffffffffffffffffffffffffffff16815260200190815260200160002054811115610840576040517f08c379a000000000000000000000000000000000000000000000000000000000815260040161083790611639565b60405180910390fd5b80600660003373ffffffffffffffffffffffffffffffffffffffff1673ffffffffffffffffffffffffffffffffffffffff168152602001908152602001600020600082825461088f91906114e1565b9250508190555080600560008282546108a891906114e1565b9250508190555080600960008282546108c19190611659565b92505081905550600860009054906101000a900473ffffffffffffffffffffffffffffffffffffffff1673ffffffffffffffffffffffffffffffffffffffff16637a3130e333836040518363ffffffff1660e01b81526004016109259291906116af565b600060405180830381600087803b15801561093f57600080fd5b505af1158015610953573d6000803e3d6000fd5b50505050600860009054906101000a900473ffffffffffffffffffffffffffffffffffffffff1673ffffffffffffffffffffffffffffffffffffffff163373ffffffffffffffffffffffffffffffffffffffff167f18df02dcc52b9c494f391df09661519c0069bd8540141946280399408205ca1a836040516109d6919061122f565b60405180910390a350565b600160009054906101000a900473ffffffffffffffffffffffffffffffffffffffff1673ffffffffffffffffffffffffffffffffffffffff163373ffffffffffffffffffffffffffffffffffffffff1614610a71576040517f08c379a0000000000000000000000000000000000000000000000000000000008152600401610a6890611724565b60405180910390fd5b336000806101000a81548173ffffffffffffffffffffffffffffffffffffffff021916908373ffffffffffffffffffffffffffffffffffffffff160217905550565b600a60009054906101000a900460ff1681565b60066020528060005260406000206000915090505481565b60008054906101000a900473ffffffffffffffffffffffffffffffffffffffff1673ffffffffffffffffffffffffffffffffffffffff163373ffffffffffffffffffffffffffffffffffffffff1614610b6c576040517f08c379a0000000000000000000000000000000000000000000000000000000008152600401610b6390611492565b60405180910390fd5b600073ffffffffffffffffffffffffffffffffffffffff16600860009054906101000a900473ffffffffffffffffffffffffffffffffffffffff1673ffffffffffffffffffffffffffffffffffffffff1614610bfd576040517f08c379a0000000000000000000000000000000000000000000000000000000008152600401610bf490611790565b60405180910390fd5b80600860006101000a81548173ffffffffffffffffffffffffffffffffffffffff021916908373ffffffffffffffffffffffffffffffffffffffff1602179055506001600a60006101000a81548160ff02191690831515021790555050565b600860009054906101000a900473ffffffffffffffffffffffffffffffffffffffff1681565b60008054906101000a900473ffffffffffffffffffffffffffffffffffffffff1681565b60095481565b60038054610cb990611414565b80601f0160208091040260200160405190810160405280929190818152602001828054610ce590611414565b8015610d325780601f10610d0757610100808354040283529160200191610d32565b820191906000526020600020905b815481529060010190602001808311610d1557829003601f168201915b505050505081565b6000610d47338484610ebd565b6001905092915050565b600860009054906101000a900473ffffffffffffffffffffffffffffffffffffffff1673ffffffffffffffffffffffffffffffffffffffff163373ffffffffffffffffffffffffffffffffffffffff1614610de1576040517f08c379a0000000000000000000000000000000000000000000000000000000008152600401610dd890611822565b60405180910390fd5b6000600a60006101000a81548160ff0219169083151502179055506000600860006101000a81548173ffffffffffffffffffffffffffffffffffffffff021916908373ffffffffffffffffffffffffffffffffffffffff160217905550565b6000600160009054906101000a900473ffffffffffffffffffffffffffffffffffffffff1673ffffffffffffffffffffffffffffffffffffffff163373ffffffffffffffffffffffffffffffffffffffff1614905090565b6007602052816000526040600020602052806000526040600020600091509150505481565b60001515600a60009054906101000a900460ff16151514610f13576040517f08c379a0000000000000000000000000000000000000000000000000000000008152600401610f0a9061188e565b60405180910390fd5b80600660008573ffffffffffffffffffffffffffffffffffffffff1673ffffffffffffffffffffffffffffffffffffffff1681526020019081526020016000206000828254610f6291906114e1565b9250508190555080600660008473ffffffffffffffffffffffffffffffffffffffff1673ffffffffffffffffffffffffffffffffffffffff1681526020019081526020016000206000828254610fb89190611659565b925050819055508173ffffffffffffffffffffffffffffffffffffffff168373ffffffffffffffffffffffffffffffffffffffff167fddf252ad1be2c89b69c2b068fc378daa952ba7f163c4a11628f55a4df523b3ef8360405161101c919061122f565b60405180910390a3505050565b600081519050919050565b600082825260208201905092915050565b60005b83811015611063578082015181840152602081019050611048565b83811115611072576000848401525b50505050565b6000601f19601f8301169050919050565b600061109482611029565b61109e8185611034565b93506110ae818560208601611045565b6110b781611078565b840191505092915050565b600060208201905081810360008301526110dc8184611089565b905092915050565b600080fd5b600073ffffffffffffffffffffffffffffffffffffffff82169050919050565b6000611114826110e9565b9050919050565b61112481611109565b811461112f57600080fd5b50565b6000813590506111418161111b565b92915050565b60006020828403121561115d5761115c6110e4565b5b600061116b84828501611132565b91505092915050565b6000819050919050565b61118781611174565b811461119257600080fd5b50565b6000813590506111a48161117e565b92915050565b600080604083850312156111c1576111c06110e4565b5b60006111cf85828601611132565b92505060206111e085828601611195565b9150509250929050565b60008115159050919050565b6111ff816111ea565b82525050565b600060208201905061121a60008301846111f6565b92915050565b61122981611174565b82525050565b60006020820190506112446000830184611220565b92915050565b600080600060608486031215611263576112626110e4565b5b600061127186828701611132565b935050602061128286828701611132565b925050604061129386828701611195565b9150509250925092565b600060ff82169050919050565b6112b38161129d565b82525050565b60006020820190506112ce60008301846112aa565b92915050565b6000602082840312156112ea576112e96110e4565b5b60006112f884828501611195565b91505092915050565b6000819050919050565b600061132661132161131c846110e9565b611301565b6110e9565b9050919050565b60006113388261130b565b9050919050565b600061134a8261132d565b9050919050565b61135a8161133f565b82525050565b60006020820190506113756000830184611351565b92915050565b61138481611109565b82525050565b600060208201905061139f600083018461137b565b92915050565b600080604083850312156113bc576113bb6110e4565b5b60006113ca85828601611132565b92505060206113db85828601611132565b9150509250929050565b7f4e487b7100000000000000000000000000000000000000000000000000000000600052602260045260246000fd5b6000600282049050600182168061142c57607f821691505b602082108114156114405761143f6113e5565b5b50919050565b7f596f7520617265206e6f7420746865206f776e65720000000000000000000000600082015250565b600061147c601583611034565b915061148782611446565b602082019050919050565b600060208201905081810360008301526114ab8161146f565b9050919050565b7f4e487b7100000000000000000000000000000000000000000000000000000000600052601160045260246000fd5b60006114ec82611174565b91506114f783611174565b92508282101561150a576115096114b2565b5b828203905092915050565b7f4d6967726174696f6e206973206e6f7420737461727465640000000000000000600082015250565b600061154b601883611034565b915061155682611515565b602082019050919050565b6000602082019050818103600083015261157a8161153e565b9050919050565b7f596f752068617665206e6f20746f6b656e730000000000000000000000000000600082015250565b60006115b7601283611034565b91506115c282611581565b602082019050919050565b600060208201905081810360008301526115e6816115aa565b9050919050565b7f596f752068617665206e6f7420656e6f75676820746f6b656e73000000000000600082015250565b6000611623601a83611034565b915061162e826115ed565b602082019050919050565b6000602082019050818103600083015261165281611616565b9050919050565b600061166482611174565b915061166f83611174565b9250827fffffffffffffffffffffffffffffffffffffffffffffffffffffffffffffffff038211156116a4576116a36114b2565b5b828201905092915050565b60006040820190506116c4600083018561137b565b6116d16020830184611220565b9392505050565b7f596f75206172652061206e6f74207468652063616e6469646174000000000000600082015250565b600061170e601a83611034565b9150611719826116d8565b602082019050919050565b6000602082019050818103600083015261173d81611701565b9050919050565b7f4d6967726174696f6e2063616e6074206265206368616e676564000000000000600082015250565b600061177a601a83611034565b915061178582611744565b602082019050919050565b600060208201905081810360008301526117a98161176d565b9050919050565b7f4f6e6c79204d6967726174696f6e204167656e742063616e2066696e616c697a60008201527f65206d6967726174696f6e000000000000000000000000000000000000000000602082015250565b600061180c602b83611034565b9150611817826117b0565b604082019050919050565b6000602082019050818103600083015261183b816117ff565b9050919050565b7f4d6967726174696f6e20616c7265616479207374617274656400000000000000600082015250565b6000611878601983611034565b915061188382611842565b602082019050919050565b600060208201905081810360008301526118a78161186b565b905091905056fea26469706673582212201a2f38e2ac6de897a78fc664355bf4099fd58825faeb502d7fa9f4542a82babf64736f6c634300080a0033",
  "immutableReferences": {},
  "source": "// SPDX-License-Identifier: MIT\npragma solidity >=0.5.0 <0.9.0;\nimport \"./Owned.sol\";\nimport \"./MigrationAgent.sol\";\n\ncontract AwesomeTokenNew is Owned {\n    string public name;\n    string public symbol;\n    uint8 public decimals = 18;\n    uint256 public totalSupply;\n    mapping(address => uint256) public balanceOf;\n    mapping(address => mapping(address => uint256)) public allowance;\n    MigrationAgent public migrationAgent;\n    uint256 public totalMigrated;\n    // need a setter in case of we want to migrate after migration is started \n    bool public isMigrationStarted;\n\n    event Transfer(address indexed from, address indexed to, uint256 value);\n\n    event Approval(address indexed _owner, address indexed _spender, uint256 _value);\n\n    event Migrate(address indexed _from, address indexed _to, uint256 _value);\n\n    constructor(uint256 initialSupply, string memory tokenName, string memory tokenSymbol) {\n        totalSupply = initialSupply * 10 ** uint256(decimals);\n        balanceOf[msg.sender] = totalSupply;\n        name = tokenName;\n\n        symbol = tokenSymbol;\n    }\n\n    function _transfer(address _from, address _to, uint _value ) internal {\n        require(isMigrationStarted == false, \"Migration already started\");\n        balanceOf[_from] -= _value;\n        balanceOf[_to] += _value;\n        emit Transfer(_from, _to, _value);\n    }\n\n    function transfer(address _to, uint256 _value) public returns (bool success) {\n        _transfer(msg.sender, _to, _value);\n        return true;\n    }\n    function transferFrom(address _from, address _to, uint256 _value) public returns(bool success) {\n        require(_value <= allowance[_from][msg.sender]);\n        allowance[_from][msg.sender] -= _value;\n        _transfer(_from, _to, _value);\n        return true;\n    }\n    function approve(address _spender, uint256 _value) public returns (bool success) {\n        allowance[msg.sender][_spender] = _value;\n        emit Approval(msg.sender, _spender, _value);\n        return true;\n    }\n    function setMigrationAgent(address _agent) external onlyOwner {\n        require(address(migrationAgent) == address(0), \"Migration can`t be changed\");\n        migrationAgent = MigrationAgent(_agent);\n        isMigrationStarted = true;\n    }\n\n    function migrate(uint256 _value) external {\n        require(isMigrationStarted, \"Migration is not started\");\n        require(_value != 0, \"You have no tokens\");\n        require(_value <= balanceOf[msg.sender], \"You have not enough tokens\");\n        balanceOf[msg.sender] -= _value;\n        totalSupply -= _value;\n        totalMigrated += _value;\n        migrationAgent.migrateFrom(msg.sender, _value);\n        emit Migrate(msg.sender, address(migrationAgent), _value);\n    }\n\n    function finalizeMigration() public {\n        require(msg.sender == address(migrationAgent), 'Only Migration Agent can finalize migration');\n        isMigrationStarted = false;\n        migrationAgent = MigrationAgent(address(0));\n    }\n\n}   ",
  "sourcePath": "/home/sever/www/blockchain/truffle/contracts/AwesomeTokenNew.sol",
  "compiler": {
    "name": "solc",
    "version": "0.8.10+commit.fc410830.Emscripten.clang"
  },
  "schemaVersion": "3.4.3",
  "updatedAt": "2021-12-25T11:43:00.528Z",
  "networkType": "ethereum",
  "devdoc": {
    "kind": "dev",
    "methods": {},
    "version": 1
  },
  "userdoc": {
    "kind": "user",
    "methods": {},
    "version": 1
  }
}