{
  "contractName": "MigrationAgentSever",
  "abi": [
    {
      "inputs": [
        {
          "internalType": "address",
          "name": "_sourceToken",
          "type": "address"
        }
      ],
      "stateMutability": "nonpayable",
      "type": "constructor"
    },
    {
      "inputs": [],
      "name": "isOwnerCandidat",
      "outputs": [
        {
          "internalType": "bool",
          "name": "",
          "type": "bool"
        }
      ],
      "stateMutability": "view",
      "type": "function",
      "constant": true
    },
    {
      "inputs": [],
      "name": "owner",
      "outputs": [
        {
          "internalType": "address",
          "name": "",
          "type": "address"
        }
      ],
      "stateMutability": "view",
      "type": "function",
      "constant": true
    },
    {
      "inputs": [
        {
          "internalType": "address",
          "name": "newOwner",
          "type": "address"
        }
      ],
      "name": "setNewOwnerCandidat",
      "outputs": [],
      "stateMutability": "nonpayable",
      "type": "function"
    },
    {
      "inputs": [],
      "name": "takeOwnership",
      "outputs": [],
      "stateMutability": "nonpayable",
      "type": "function"
    },
    {
      "inputs": [
        {
          "internalType": "address",
          "name": "_targetToken",
          "type": "address"
        }
      ],
      "name": "setTargetToken",
      "outputs": [],
      "stateMutability": "nonpayable",
      "type": "function"
    },
    {
      "inputs": [
        {
          "internalType": "address",
          "name": "_from",
          "type": "address"
        },
        {
          "internalType": "uint256",
          "name": "_value",
          "type": "uint256"
        }
      ],
      "name": "migrateFrom",
      "outputs": [],
      "stateMutability": "nonpayable",
      "type": "function"
    },
    {
      "inputs": [],
      "name": "finalizeMigration",
      "outputs": [],
      "stateMutability": "nonpayable",
      "type": "function"
    }
  ],
  "bytecode": "0x60806040523480156200001157600080fd5b5060405162001274380380620012748339818101604052810190620000379190620001c3565b336000806101000a81548173ffffffffffffffffffffffffffffffffffffffff021916908373ffffffffffffffffffffffffffffffffffffffff16021790555080600260006101000a81548173ffffffffffffffffffffffffffffffffffffffff021916908373ffffffffffffffffffffffffffffffffffffffff160217905550600260009054906101000a900473ffffffffffffffffffffffffffffffffffffffff1673ffffffffffffffffffffffffffffffffffffffff166318160ddd6040518163ffffffff1660e01b8152600401602060405180830381865afa15801562000126573d6000803e3d6000fd5b505050506040513d601f19601f820116820180604052508101906200014c919062000230565b6004819055505062000262565b600080fd5b600073ffffffffffffffffffffffffffffffffffffffff82169050919050565b60006200018b826200015e565b9050919050565b6200019d816200017e565b8114620001a957600080fd5b50565b600081519050620001bd8162000192565b92915050565b600060208284031215620001dc57620001db62000159565b5b6000620001ec84828501620001ac565b91505092915050565b6000819050919050565b6200020a81620001f5565b81146200021657600080fd5b50565b6000815190506200022a81620001ff565b92915050565b60006020828403121562000249576200024862000159565b5b6000620002598482850162000219565b91505092915050565b61100280620002726000396000f3fe608060405234801561001057600080fd5b506004361061007d5760003560e01c80637a3130e31161005b5780637a3130e3146100c45780638da5cb5b146100e0578063b78b6087146100fe578063c3d08105146101085761007d565b806307af9d8e146100825780631b66cb001461009e57806360536172146100ba575b600080fd5b61009c60048036038101906100979190610ad7565b610126565b005b6100b860048036038101906100b39190610ad7565b6101f8565b005b6100c261035b565b005b6100de60048036038101906100d99190610b3a565b61042d565b005b6100e86105f5565b6040516100f59190610b89565b60405180910390f35b610106610619565b005b610110610843565b60405161011d9190610bbf565b60405180910390f35b60008054906101000a900473ffffffffffffffffffffffffffffffffffffffff1673ffffffffffffffffffffffffffffffffffffffff163373ffffffffffffffffffffffffffffffffffffffff16146101b4576040517f08c379a00000000000000000000000000000000000000000000000000000000081526004016101ab90610c37565b60405180910390fd5b80600160006101000a81548173ffffffffffffffffffffffffffffffffffffffff021916908373ffffffffffffffffffffffffffffffffffffffff16021790555050565b60008054906101000a900473ffffffffffffffffffffffffffffffffffffffff1673ffffffffffffffffffffffffffffffffffffffff163373ffffffffffffffffffffffffffffffffffffffff1614610286576040517f08c379a000000000000000000000000000000000000000000000000000000000815260040161027d90610c37565b60405180910390fd5b600073ffffffffffffffffffffffffffffffffffffffff16600360009054906101000a900473ffffffffffffffffffffffffffffffffffffffff1673ffffffffffffffffffffffffffffffffffffffff1614610317576040517f08c379a000000000000000000000000000000000000000000000000000000000815260040161030e90610ca3565b60405180910390fd5b80600360006101000a81548173ffffffffffffffffffffffffffffffffffffffff021916908373ffffffffffffffffffffffffffffffffffffffff16021790555050565b600160009054906101000a900473ffffffffffffffffffffffffffffffffffffffff1673ffffffffffffffffffffffffffffffffffffffff163373ffffffffffffffffffffffffffffffffffffffff16146103eb576040517f08c379a00000000000000000000000000000000000000000000000000000000081526004016103e290610d0f565b60405180910390fd5b336000806101000a81548173ffffffffffffffffffffffffffffffffffffffff021916908373ffffffffffffffffffffffffffffffffffffffff160217905550565b600260009054906101000a900473ffffffffffffffffffffffffffffffffffffffff1673ffffffffffffffffffffffffffffffffffffffff163373ffffffffffffffffffffffffffffffffffffffff16146104bd576040517f08c379a00000000000000000000000000000000000000000000000000000000081526004016104b490610da1565b60405180910390fd5b600073ffffffffffffffffffffffffffffffffffffffff16600360009054906101000a900473ffffffffffffffffffffffffffffffffffffffff1673ffffffffffffffffffffffffffffffffffffffff16141561054f576040517f08c379a000000000000000000000000000000000000000000000000000000000815260040161054690610e0d565b60405180910390fd5b6105588161089b565b600360009054906101000a900473ffffffffffffffffffffffffffffffffffffffff1673ffffffffffffffffffffffffffffffffffffffff16636a10d4d683836040518363ffffffff1660e01b81526004016105b5929190610e3c565b600060405180830381600087803b1580156105cf57600080fd5b505af11580156105e3573d6000803e3d6000fd5b505050506105f1600061089b565b5050565b60008054906101000a900473ffffffffffffffffffffffffffffffffffffffff1681565b60008054906101000a900473ffffffffffffffffffffffffffffffffffffffff1673ffffffffffffffffffffffffffffffffffffffff163373ffffffffffffffffffffffffffffffffffffffff16146106a7576040517f08c379a000000000000000000000000000000000000000000000000000000000815260040161069e90610c37565b60405180910390fd5b6106b1600061089b565b600260009054906101000a900473ffffffffffffffffffffffffffffffffffffffff1673ffffffffffffffffffffffffffffffffffffffff1663b78b60876040518163ffffffff1660e01b8152600401600060405180830381600087803b15801561071b57600080fd5b505af115801561072f573d6000803e3d6000fd5b50505050600360009054906101000a900473ffffffffffffffffffffffffffffffffffffffff1673ffffffffffffffffffffffffffffffffffffffff1663b78b60876040518163ffffffff1660e01b8152600401600060405180830381600087803b15801561079d57600080fd5b505af11580156107b1573d6000803e3d6000fd5b505050506000600260006101000a81548173ffffffffffffffffffffffffffffffffffffffff021916908373ffffffffffffffffffffffffffffffffffffffff1602179055506000600360006101000a81548173ffffffffffffffffffffffffffffffffffffffff021916908373ffffffffffffffffffffffffffffffffffffffff1602179055506000600481905550565b6000600160009054906101000a900473ffffffffffffffffffffffffffffffffffffffff1673ffffffffffffffffffffffffffffffffffffffff163373ffffffffffffffffffffffffffffffffffffffff1614905090565b600073ffffffffffffffffffffffffffffffffffffffff16600360009054906101000a900473ffffffffffffffffffffffffffffffffffffffff1673ffffffffffffffffffffffffffffffffffffffff16141561092d576040517f08c379a000000000000000000000000000000000000000000000000000000000815260040161092490610eb1565b60405180910390fd5b8060045461093b9190610f00565b600360009054906101000a900473ffffffffffffffffffffffffffffffffffffffff1673ffffffffffffffffffffffffffffffffffffffff166318160ddd6040518163ffffffff1660e01b8152600401602060405180830381865afa1580156109a8573d6000803e3d6000fd5b505050506040513d601f19601f820116820180604052508101906109cc9190610f49565b600260009054906101000a900473ffffffffffffffffffffffffffffffffffffffff1673ffffffffffffffffffffffffffffffffffffffff166318160ddd6040518163ffffffff1660e01b8152600401602060405180830381865afa158015610a39573d6000803e3d6000fd5b505050506040513d601f19601f82011682018060405250810190610a5d9190610f49565b610a679190610f76565b14610a7157600080fd5b50565b600080fd5b600073ffffffffffffffffffffffffffffffffffffffff82169050919050565b6000610aa482610a79565b9050919050565b610ab481610a99565b8114610abf57600080fd5b50565b600081359050610ad181610aab565b92915050565b600060208284031215610aed57610aec610a74565b5b6000610afb84828501610ac2565b91505092915050565b6000819050919050565b610b1781610b04565b8114610b2257600080fd5b50565b600081359050610b3481610b0e565b92915050565b60008060408385031215610b5157610b50610a74565b5b6000610b5f85828601610ac2565b9250506020610b7085828601610b25565b9150509250929050565b610b8381610a99565b82525050565b6000602082019050610b9e6000830184610b7a565b92915050565b60008115159050919050565b610bb981610ba4565b82525050565b6000602082019050610bd46000830184610bb0565b92915050565b600082825260208201905092915050565b7f596f7520617265206e6f7420746865206f776e65720000000000000000000000600082015250565b6000610c21601583610bda565b9150610c2c82610beb565b602082019050919050565b60006020820190508181036000830152610c5081610c14565b9050919050565b7f54617267657420746f6b656e2063616e206e6f74206265206368616e67656400600082015250565b6000610c8d601f83610bda565b9150610c9882610c57565b602082019050919050565b60006020820190508181036000830152610cbc81610c80565b9050919050565b7f596f75206172652061206e6f74207468652063616e6469646174000000000000600082015250565b6000610cf9601a83610bda565b9150610d0482610cc3565b602082019050919050565b60006020820190508181036000830152610d2881610cec565b9050919050565b7f596f752063616e206d696772617465206f6e6c792066726f6d20736f7572636560008201527f20746f6b656e0000000000000000000000000000000000000000000000000000602082015250565b6000610d8b602683610bda565b9150610d9682610d2f565b604082019050919050565b60006020820190508181036000830152610dba81610d7e565b9050919050565b7f54617267657420746f6b656e206973206e6f7420736574000000000000000000600082015250565b6000610df7601783610bda565b9150610e0282610dc1565b602082019050919050565b60006020820190508181036000830152610e2681610dea565b9050919050565b610e3681610b04565b82525050565b6000604082019050610e516000830185610b7a565b610e5e6020830184610e2d565b9392505050565b7f54617267657420746f6b656e20617265206e6f74207365740000000000000000600082015250565b6000610e9b601883610bda565b9150610ea682610e65565b602082019050919050565b60006020820190508181036000830152610eca81610e8e565b9050919050565b7f4e487b7100000000000000000000000000000000000000000000000000000000600052601160045260246000fd5b6000610f0b82610b04565b9150610f1683610b04565b925082821015610f2957610f28610ed1565b5b828203905092915050565b600081519050610f4381610b0e565b92915050565b600060208284031215610f5f57610f5e610a74565b5b6000610f6d84828501610f34565b91505092915050565b6000610f8182610b04565b9150610f8c83610b04565b9250827fffffffffffffffffffffffffffffffffffffffffffffffffffffffffffffffff03821115610fc157610fc0610ed1565b5b82820190509291505056fea26469706673582212203f9b4da791fcbefbb552e5ec39cbf14d63d29c11f398e51d0b031ad858b2cf5664736f6c634300080a0033",
  "immutableReferences": {},
  "source": "// SPDX-License-Identifier: MIT\npragma solidity >=0.5.0 <0.9.0;\nimport \"./AwesomeTokenNew.sol\";\nimport \"./Owned.sol\";\nimport \"./SeverToken.sol\";\n\n\ncontract MigrationAgentSever is Owned {\n    address sourceToken;\n    address targetToken;\n    uint256 tokenSupply;\n\n    constructor (address _sourceToken) {\n        sourceToken = _sourceToken;\n        tokenSupply = AwesomeTokenNew(sourceToken).totalSupply();\n    }\n\n    function setTargetToken(address _targetToken) public onlyOwner {\n        require(targetToken == address(0), \"Target token can not be changed\");\n        targetToken = _targetToken;\n    }\n\n    function safetyInvariantCheck(uint256 _value) private view {\n        require(targetToken != address(0), 'Target token are not set');\n        require(AwesomeTokenNew(sourceToken).totalSupply() + SeverToken(targetToken).totalSupply() == tokenSupply - _value);\n    }\n\n    function migrateFrom (address _from, uint256 _value) public {\n        require(msg.sender == sourceToken, 'You can migrate only from source token');\n        require(targetToken != address(0), 'Target token is not set');\n        safetyInvariantCheck(_value);\n        SeverToken(targetToken).createToken(_from, _value);\n        safetyInvariantCheck(0);\n    }\n\n    function finalizeMigration() public onlyOwner  {\n        safetyInvariantCheck(0);\n        AwesomeTokenNew(sourceToken).finalizeMigration();\n        SeverToken(targetToken).finalizeMigration();\n        sourceToken = address(0);\n        targetToken = address(0);\n        tokenSupply = 0;\n    }\n}",
  "sourcePath": "/home/sever/www/blockchain/truffle/contracts/MigrationAgentSever.sol",
  "compiler": {
    "name": "solc",
    "version": "0.8.10+commit.fc410830.Emscripten.clang"
  },
  "schemaVersion": "3.4.3",
  "updatedAt": "2021-12-25T11:43:00.515Z",
  "networkType": "ethereum",
  "devdoc": {
    "kind": "dev",
    "methods": {},
    "version": 1
  },
  "userdoc": {
    "kind": "user",
    "methods": {},
    "version": 1
  }
}