{
  "contractName": "Owned",
  "abi": [
    {
      "inputs": [],
      "stateMutability": "nonpayable",
      "type": "constructor"
    },
    {
      "inputs": [],
      "name": "owner",
      "outputs": [
        {
          "internalType": "address",
          "name": "",
          "type": "address"
        }
      ],
      "stateMutability": "view",
      "type": "function"
    },
    {
      "inputs": [],
      "name": "isOwnerCandidat",
      "outputs": [
        {
          "internalType": "bool",
          "name": "",
          "type": "bool"
        }
      ],
      "stateMutability": "view",
      "type": "function"
    },
    {
      "inputs": [
        {
          "internalType": "address",
          "name": "newOwner",
          "type": "address"
        }
      ],
      "name": "setNewOwnerCandidat",
      "outputs": [],
      "stateMutability": "nonpayable",
      "type": "function"
    },
    {
      "inputs": [],
      "name": "takeOwnership",
      "outputs": [],
      "stateMutability": "nonpayable",
      "type": "function"
    }
  ],
  "bytecode": "0x608060405234801561001057600080fd5b50336000806101000a81548173ffffffffffffffffffffffffffffffffffffffff021916908373ffffffffffffffffffffffffffffffffffffffff1602179055506104e2806100606000396000f3fe608060405234801561001057600080fd5b506004361061004c5760003560e01c806307af9d8e14610051578063605361721461006d5780638da5cb5b14610077578063c3d0810514610095575b600080fd5b61006b60048036038101906100669190610336565b6100b3565b005b610075610185565b005b61007f610257565b60405161008c9190610372565b60405180910390f35b61009d61027b565b6040516100aa91906103a8565b60405180910390f35b60008054906101000a900473ffffffffffffffffffffffffffffffffffffffff1673ffffffffffffffffffffffffffffffffffffffff163373ffffffffffffffffffffffffffffffffffffffff1614610141576040517f08c379a000000000000000000000000000000000000000000000000000000000815260040161013890610420565b60405180910390fd5b80600160006101000a81548173ffffffffffffffffffffffffffffffffffffffff021916908373ffffffffffffffffffffffffffffffffffffffff16021790555050565b600160009054906101000a900473ffffffffffffffffffffffffffffffffffffffff1673ffffffffffffffffffffffffffffffffffffffff163373ffffffffffffffffffffffffffffffffffffffff1614610215576040517f08c379a000000000000000000000000000000000000000000000000000000000815260040161020c9061048c565b60405180910390fd5b336000806101000a81548173ffffffffffffffffffffffffffffffffffffffff021916908373ffffffffffffffffffffffffffffffffffffffff160217905550565b60008054906101000a900473ffffffffffffffffffffffffffffffffffffffff1681565b6000600160009054906101000a900473ffffffffffffffffffffffffffffffffffffffff1673ffffffffffffffffffffffffffffffffffffffff163373ffffffffffffffffffffffffffffffffffffffff1614905090565b600080fd5b600073ffffffffffffffffffffffffffffffffffffffff82169050919050565b6000610303826102d8565b9050919050565b610313816102f8565b811461031e57600080fd5b50565b6000813590506103308161030a565b92915050565b60006020828403121561034c5761034b6102d3565b5b600061035a84828501610321565b91505092915050565b61036c816102f8565b82525050565b60006020820190506103876000830184610363565b92915050565b60008115159050919050565b6103a28161038d565b82525050565b60006020820190506103bd6000830184610399565b92915050565b600082825260208201905092915050565b7f596f7520617265206e6f7420746865206f776e65720000000000000000000000600082015250565b600061040a6015836103c3565b9150610415826103d4565b602082019050919050565b60006020820190508181036000830152610439816103fd565b9050919050565b7f596f75206172652061206e6f74207468652063616e6469646174000000000000600082015250565b6000610476601a836103c3565b915061048182610440565b602082019050919050565b600060208201905081810360008301526104a581610469565b905091905056fea264697066735822122061102500f69d98612426ef2463249eacfb51733a59860fab879ab56c29488d4a64736f6c634300080a0033",
  "immutableReferences": {},
  "source": "// SPDX-License-Identifier: MIT\npragma solidity >=0.5.0 <0.9.0;\n\ncontract Owned {\n    address public owner;\n    address private ownerCandidat;\n\n    modifier onlyOwner() {\n        require(msg.sender == owner, \"You are not the owner\");\n        // function body\n        _;\n        \n        // if (msg.sender == owner) {\n        //     _;\n        // } else revert(\"exception text\");\n    }\n\n    constructor() {\n        owner = msg.sender;\n    }\n\n    function isOwnerCandidat() view public returns(bool) {\n        return msg.sender == ownerCandidat;\n    }\n\n    function setNewOwnerCandidat(address newOwner) public onlyOwner {\n        ownerCandidat = newOwner;\n    }\n\n    function takeOwnership() public {\n        require(msg.sender == ownerCandidat, \"You are a not the candidat\");\n        owner = msg.sender;\n    }\n}",
  "sourcePath": "/home/sever/www/blockchain/truffle/contracts/Owned.sol",
  "compiler": {
    "name": "solc",
    "version": "0.8.10+commit.fc410830.Emscripten.clang"
  },
  "schemaVersion": "3.4.3",
  "updatedAt": "2021-12-18T12:14:45.273Z",
  "devdoc": {
    "kind": "dev",
    "methods": {},
    "version": 1
  },
  "userdoc": {
    "kind": "user",
    "methods": {},
    "version": 1
  }
}