{
  "contractName": "SeverToken",
  "abi": [
    {
      "inputs": [
        {
          "internalType": "string",
          "name": "tokenName",
          "type": "string"
        },
        {
          "internalType": "string",
          "name": "tokenSymbol",
          "type": "string"
        }
      ],
      "stateMutability": "nonpayable",
      "type": "constructor"
    },
    {
      "anonymous": false,
      "inputs": [
        {
          "indexed": true,
          "internalType": "address",
          "name": "_owner",
          "type": "address"
        },
        {
          "indexed": true,
          "internalType": "address",
          "name": "_spender",
          "type": "address"
        },
        {
          "indexed": false,
          "internalType": "uint256",
          "name": "_value",
          "type": "uint256"
        }
      ],
      "name": "Approval",
      "type": "event"
    },
    {
      "anonymous": false,
      "inputs": [
        {
          "indexed": true,
          "internalType": "address",
          "name": "_from",
          "type": "address"
        },
        {
          "indexed": true,
          "internalType": "address",
          "name": "_to",
          "type": "address"
        },
        {
          "indexed": false,
          "internalType": "uint256",
          "name": "_value",
          "type": "uint256"
        }
      ],
      "name": "Migrate",
      "type": "event"
    },
    {
      "anonymous": false,
      "inputs": [
        {
          "indexed": true,
          "internalType": "address",
          "name": "from",
          "type": "address"
        },
        {
          "indexed": true,
          "internalType": "address",
          "name": "to",
          "type": "address"
        },
        {
          "indexed": false,
          "internalType": "uint256",
          "name": "value",
          "type": "uint256"
        }
      ],
      "name": "Transfer",
      "type": "event"
    },
    {
      "inputs": [
        {
          "internalType": "address",
          "name": "",
          "type": "address"
        },
        {
          "internalType": "address",
          "name": "",
          "type": "address"
        }
      ],
      "name": "allowance",
      "outputs": [
        {
          "internalType": "uint256",
          "name": "",
          "type": "uint256"
        }
      ],
      "stateMutability": "view",
      "type": "function",
      "constant": true
    },
    {
      "inputs": [
        {
          "internalType": "address",
          "name": "",
          "type": "address"
        }
      ],
      "name": "balanceOf",
      "outputs": [
        {
          "internalType": "uint256",
          "name": "",
          "type": "uint256"
        }
      ],
      "stateMutability": "view",
      "type": "function",
      "constant": true
    },
    {
      "inputs": [],
      "name": "isMigrationStarted",
      "outputs": [
        {
          "internalType": "bool",
          "name": "",
          "type": "bool"
        }
      ],
      "stateMutability": "view",
      "type": "function",
      "constant": true
    },
    {
      "inputs": [],
      "name": "isOwnerCandidat",
      "outputs": [
        {
          "internalType": "bool",
          "name": "",
          "type": "bool"
        }
      ],
      "stateMutability": "view",
      "type": "function",
      "constant": true
    },
    {
      "inputs": [],
      "name": "migrationAgent",
      "outputs": [
        {
          "internalType": "contract MigrationAgent",
          "name": "",
          "type": "address"
        }
      ],
      "stateMutability": "view",
      "type": "function",
      "constant": true
    },
    {
      "inputs": [],
      "name": "name",
      "outputs": [
        {
          "internalType": "string",
          "name": "",
          "type": "string"
        }
      ],
      "stateMutability": "view",
      "type": "function",
      "constant": true
    },
    {
      "inputs": [],
      "name": "owner",
      "outputs": [
        {
          "internalType": "address",
          "name": "",
          "type": "address"
        }
      ],
      "stateMutability": "view",
      "type": "function",
      "constant": true
    },
    {
      "inputs": [
        {
          "internalType": "address",
          "name": "newOwner",
          "type": "address"
        }
      ],
      "name": "setNewOwnerCandidat",
      "outputs": [],
      "stateMutability": "nonpayable",
      "type": "function"
    },
    {
      "inputs": [],
      "name": "symbol",
      "outputs": [
        {
          "internalType": "string",
          "name": "",
          "type": "string"
        }
      ],
      "stateMutability": "view",
      "type": "function",
      "constant": true
    },
    {
      "inputs": [],
      "name": "takeOwnership",
      "outputs": [],
      "stateMutability": "nonpayable",
      "type": "function"
    },
    {
      "inputs": [],
      "name": "totalMigrated",
      "outputs": [
        {
          "internalType": "uint256",
          "name": "",
          "type": "uint256"
        }
      ],
      "stateMutability": "view",
      "type": "function",
      "constant": true
    },
    {
      "inputs": [],
      "name": "totalSupply",
      "outputs": [
        {
          "internalType": "uint256",
          "name": "",
          "type": "uint256"
        }
      ],
      "stateMutability": "view",
      "type": "function",
      "constant": true
    },
    {
      "inputs": [
        {
          "internalType": "address",
          "name": "_to",
          "type": "address"
        },
        {
          "internalType": "uint256",
          "name": "_value",
          "type": "uint256"
        }
      ],
      "name": "transfer",
      "outputs": [
        {
          "internalType": "bool",
          "name": "success",
          "type": "bool"
        }
      ],
      "stateMutability": "nonpayable",
      "type": "function"
    },
    {
      "inputs": [
        {
          "internalType": "address",
          "name": "_from",
          "type": "address"
        },
        {
          "internalType": "address",
          "name": "_to",
          "type": "address"
        },
        {
          "internalType": "uint256",
          "name": "_value",
          "type": "uint256"
        }
      ],
      "name": "transferFrom",
      "outputs": [
        {
          "internalType": "bool",
          "name": "success",
          "type": "bool"
        }
      ],
      "stateMutability": "nonpayable",
      "type": "function"
    },
    {
      "inputs": [
        {
          "internalType": "address",
          "name": "_spender",
          "type": "address"
        },
        {
          "internalType": "uint256",
          "name": "_value",
          "type": "uint256"
        }
      ],
      "name": "approve",
      "outputs": [
        {
          "internalType": "bool",
          "name": "success",
          "type": "bool"
        }
      ],
      "stateMutability": "nonpayable",
      "type": "function"
    },
    {
      "inputs": [
        {
          "internalType": "address",
          "name": "_agent",
          "type": "address"
        }
      ],
      "name": "setMigrationAgent",
      "outputs": [],
      "stateMutability": "nonpayable",
      "type": "function"
    },
    {
      "inputs": [
        {
          "internalType": "uint256",
          "name": "_value",
          "type": "uint256"
        }
      ],
      "name": "migrate",
      "outputs": [],
      "stateMutability": "nonpayable",
      "type": "function"
    },
    {
      "inputs": [
        {
          "internalType": "address",
          "name": "_target",
          "type": "address"
        },
        {
          "internalType": "uint256",
          "name": "_amount",
          "type": "uint256"
        }
      ],
      "name": "createToken",
      "outputs": [],
      "stateMutability": "nonpayable",
      "type": "function"
    },
    {
      "inputs": [],
      "name": "finalizeMigration",
      "outputs": [],
      "stateMutability": "nonpayable",
      "type": "function"
    }
  ],
  "bytecode": "0x608060405260006004553480156200001657600080fd5b5060405162001eb138038062001eb183398181016040528101906200003c919062000303565b336000806101000a81548173ffffffffffffffffffffffffffffffffffffffff021916908373ffffffffffffffffffffffffffffffffffffffff160217905550816002908051906020019062000094929190620000b6565b508060039080519060200190620000ad929190620000b6565b505050620003ed565b828054620000c490620003b7565b90600052602060002090601f016020900481019282620000e8576000855562000134565b82601f106200010357805160ff191683800117855562000134565b8280016001018555821562000134579182015b828111156200013357825182559160200191906001019062000116565b5b50905062000143919062000147565b5090565b5b808211156200016257600081600090555060010162000148565b5090565b6000604051905090565b600080fd5b600080fd5b600080fd5b600080fd5b6000601f19601f8301169050919050565b7f4e487b7100000000000000000000000000000000000000000000000000000000600052604160045260246000fd5b620001cf8262000184565b810181811067ffffffffffffffff82111715620001f157620001f062000195565b5b80604052505050565b60006200020662000166565b9050620002148282620001c4565b919050565b600067ffffffffffffffff82111562000237576200023662000195565b5b620002428262000184565b9050602081019050919050565b60005b838110156200026f57808201518184015260208101905062000252565b838111156200027f576000848401525b50505050565b60006200029c620002968462000219565b620001fa565b905082815260208101848484011115620002bb57620002ba6200017f565b5b620002c88482856200024f565b509392505050565b600082601f830112620002e857620002e76200017a565b5b8151620002fa84826020860162000285565b91505092915050565b600080604083850312156200031d576200031c62000170565b5b600083015167ffffffffffffffff8111156200033e576200033d62000175565b5b6200034c85828601620002d0565b925050602083015167ffffffffffffffff81111562000370576200036f62000175565b5b6200037e85828601620002d0565b9150509250929050565b7f4e487b7100000000000000000000000000000000000000000000000000000000600052602260045260246000fd5b60006002820490506001821680620003d057607f821691505b60208210811415620003e757620003e662000388565b5b50919050565b611ab480620003fd6000396000f3fe608060405234801561001057600080fd5b50600436106101215760003560e01c806370a08231116100ad57806395d89b411161007157806395d89b41146102e4578063a9059cbb14610302578063b78b608714610332578063c3d081051461033c578063dd62ed3e1461035a57610121565b806370a082311461023e57806375e2ff651461026e5780638328dbcd1461028a5780638da5cb5b146102a857806395a0f5eb146102c657610121565b806323b872dd116100f457806323b872dd146101ae578063454b0608146101de57806360536172146101fa57806360d0eb73146102045780636a10d4d61461022257610121565b806306fdde031461012657806307af9d8e14610144578063095ea7b31461016057806318160ddd14610190575b600080fd5b61012e61038a565b60405161013b9190611237565b60405180910390f35b61015e600480360381019061015991906112bc565b610418565b005b61017a6004803603810190610175919061131f565b6104ea565b604051610187919061137a565b60405180910390f35b6101986105dc565b6040516101a591906113a4565b60405180910390f35b6101c860048036038101906101c391906113bf565b6105e2565b6040516101d5919061137a565b60405180910390f35b6101f860048036038101906101f39190611412565b610716565b005b6102026109cc565b005b61020c610a9e565b604051610219919061137a565b60405180910390f35b61023c6004803603810190610237919061131f565b610ab1565b005b610258600480360381019061025391906112bc565b610c3b565b60405161026591906113a4565b60405180910390f35b610288600480360381019061028391906112bc565b610c53565b005b610292610dd1565b60405161029f919061149e565b60405180910390f35b6102b0610df7565b6040516102bd91906114c8565b60405180910390f35b6102ce610e1b565b6040516102db91906113a4565b60405180910390f35b6102ec610e21565b6040516102f99190611237565b60405180910390f35b61031c6004803603810190610317919061131f565b610eaf565b604051610329919061137a565b60405180910390f35b61033a610ec6565b005b610344610fb5565b604051610351919061137a565b60405180910390f35b610374600480360381019061036f91906114e3565b61100d565b60405161038191906113a4565b60405180910390f35b6002805461039790611552565b80601f01602080910402602001604051908101604052809291908181526020018280546103c390611552565b80156104105780601f106103e557610100808354040283529160200191610410565b820191906000526020600020905b8154815290600101906020018083116103f357829003601f168201915b505050505081565b60008054906101000a900473ffffffffffffffffffffffffffffffffffffffff1673ffffffffffffffffffffffffffffffffffffffff163373ffffffffffffffffffffffffffffffffffffffff16146104a6576040517f08c379a000000000000000000000000000000000000000000000000000000000815260040161049d906115d0565b60405180910390fd5b80600160006101000a81548173ffffffffffffffffffffffffffffffffffffffff021916908373ffffffffffffffffffffffffffffffffffffffff16021790555050565b600081600660003373ffffffffffffffffffffffffffffffffffffffff1673ffffffffffffffffffffffffffffffffffffffff16815260200190815260200160002060008573ffffffffffffffffffffffffffffffffffffffff1673ffffffffffffffffffffffffffffffffffffffff168152602001908152602001600020819055508273ffffffffffffffffffffffffffffffffffffffff163373ffffffffffffffffffffffffffffffffffffffff167f8c5be1e5ebec7d5bd14f71427d1e84f3dd0314c0f7b2291e5b200ac8c7c3b925846040516105ca91906113a4565b60405180910390a36001905092915050565b60045481565b6000600660008573ffffffffffffffffffffffffffffffffffffffff1673ffffffffffffffffffffffffffffffffffffffff16815260200190815260200160002060003373ffffffffffffffffffffffffffffffffffffffff1673ffffffffffffffffffffffffffffffffffffffff1681526020019081526020016000205482111561066d57600080fd5b81600660008673ffffffffffffffffffffffffffffffffffffffff1673ffffffffffffffffffffffffffffffffffffffff16815260200190815260200160002060003373ffffffffffffffffffffffffffffffffffffffff1673ffffffffffffffffffffffffffffffffffffffff16815260200190815260200160002060008282546106f9919061161f565b9250508190555061070b848484611032565b600190509392505050565b600960009054906101000a900460ff16610765576040517f08c379a000000000000000000000000000000000000000000000000000000000815260040161075c9061169f565b60405180910390fd5b60008114156107a9576040517f08c379a00000000000000000000000000000000000000000000000000000000081526004016107a09061170b565b60405180910390fd5b600560003373ffffffffffffffffffffffffffffffffffffffff1673ffffffffffffffffffffffffffffffffffffffff1681526020019081526020016000205481111561082b576040517f08c379a000000000000000000000000000000000000000000000000000000000815260040161082290611777565b60405180910390fd5b80600560003373ffffffffffffffffffffffffffffffffffffffff1673ffffffffffffffffffffffffffffffffffffffff168152602001908152602001600020600082825461087a919061161f565b925050819055508060046000828254610893919061161f565b9250508190555080600860008282546108ac9190611797565b92505081905550600760009054906101000a900473ffffffffffffffffffffffffffffffffffffffff1673ffffffffffffffffffffffffffffffffffffffff16637a3130e333836040518363ffffffff1660e01b81526004016109109291906117ed565b600060405180830381600087803b15801561092a57600080fd5b505af115801561093e573d6000803e3d6000fd5b50505050600760009054906101000a900473ffffffffffffffffffffffffffffffffffffffff1673ffffffffffffffffffffffffffffffffffffffff163373ffffffffffffffffffffffffffffffffffffffff167f18df02dcc52b9c494f391df09661519c0069bd8540141946280399408205ca1a836040516109c191906113a4565b60405180910390a350565b600160009054906101000a900473ffffffffffffffffffffffffffffffffffffffff1673ffffffffffffffffffffffffffffffffffffffff163373ffffffffffffffffffffffffffffffffffffffff1614610a5c576040517f08c379a0000000000000000000000000000000000000000000000000000000008152600401610a5390611862565b60405180910390fd5b336000806101000a81548173ffffffffffffffffffffffffffffffffffffffff021916908373ffffffffffffffffffffffffffffffffffffffff160217905550565b600960009054906101000a900460ff1681565b600760009054906101000a900473ffffffffffffffffffffffffffffffffffffffff1673ffffffffffffffffffffffffffffffffffffffff163373ffffffffffffffffffffffffffffffffffffffff1614610b41576040517f08c379a0000000000000000000000000000000000000000000000000000000008152600401610b38906118f4565b60405180910390fd5b80600560008473ffffffffffffffffffffffffffffffffffffffff1673ffffffffffffffffffffffffffffffffffffffff1681526020019081526020016000206000828254610b909190611797565b925050819055508060046000828254610ba99190611797565b925050819055508173ffffffffffffffffffffffffffffffffffffffff16600760009054906101000a900473ffffffffffffffffffffffffffffffffffffffff1673ffffffffffffffffffffffffffffffffffffffff167fddf252ad1be2c89b69c2b068fc378daa952ba7f163c4a11628f55a4df523b3ef83604051610c2f91906113a4565b60405180910390a35050565b60056020528060005260406000206000915090505481565b60008054906101000a900473ffffffffffffffffffffffffffffffffffffffff1673ffffffffffffffffffffffffffffffffffffffff163373ffffffffffffffffffffffffffffffffffffffff1614610ce1576040517f08c379a0000000000000000000000000000000000000000000000000000000008152600401610cd8906115d0565b60405180910390fd5b600073ffffffffffffffffffffffffffffffffffffffff16600760009054906101000a900473ffffffffffffffffffffffffffffffffffffffff1673ffffffffffffffffffffffffffffffffffffffff1614610d72576040517f08c379a0000000000000000000000000000000000000000000000000000000008152600401610d6990611960565b60405180910390fd5b80600760006101000a81548173ffffffffffffffffffffffffffffffffffffffff021916908373ffffffffffffffffffffffffffffffffffffffff1602179055506001600960006101000a81548160ff02191690831515021790555050565b600760009054906101000a900473ffffffffffffffffffffffffffffffffffffffff1681565b60008054906101000a900473ffffffffffffffffffffffffffffffffffffffff1681565b60085481565b60038054610e2e90611552565b80601f0160208091040260200160405190810160405280929190818152602001828054610e5a90611552565b8015610ea75780601f10610e7c57610100808354040283529160200191610ea7565b820191906000526020600020905b815481529060010190602001808311610e8a57829003601f168201915b505050505081565b6000610ebc338484611032565b6001905092915050565b600760009054906101000a900473ffffffffffffffffffffffffffffffffffffffff1673ffffffffffffffffffffffffffffffffffffffff163373ffffffffffffffffffffffffffffffffffffffff1614610f56576040517f08c379a0000000000000000000000000000000000000000000000000000000008152600401610f4d906119f2565b60405180910390fd5b6000600960006101000a81548160ff0219169083151502179055506000600760006101000a81548173ffffffffffffffffffffffffffffffffffffffff021916908373ffffffffffffffffffffffffffffffffffffffff160217905550565b6000600160009054906101000a900473ffffffffffffffffffffffffffffffffffffffff1673ffffffffffffffffffffffffffffffffffffffff163373ffffffffffffffffffffffffffffffffffffffff1614905090565b6006602052816000526040600020602052806000526040600020600091509150505481565b60001515600960009054906101000a900460ff16151514611088576040517f08c379a000000000000000000000000000000000000000000000000000000000815260040161107f90611a5e565b60405180910390fd5b80600560008573ffffffffffffffffffffffffffffffffffffffff1673ffffffffffffffffffffffffffffffffffffffff16815260200190815260200160002060008282546110d7919061161f565b9250508190555080600560008473ffffffffffffffffffffffffffffffffffffffff1673ffffffffffffffffffffffffffffffffffffffff168152602001908152602001600020600082825461112d9190611797565b925050819055508173ffffffffffffffffffffffffffffffffffffffff168373ffffffffffffffffffffffffffffffffffffffff167fddf252ad1be2c89b69c2b068fc378daa952ba7f163c4a11628f55a4df523b3ef8360405161119191906113a4565b60405180910390a3505050565b600081519050919050565b600082825260208201905092915050565b60005b838110156111d85780820151818401526020810190506111bd565b838111156111e7576000848401525b50505050565b6000601f19601f8301169050919050565b60006112098261119e565b61121381856111a9565b93506112238185602086016111ba565b61122c816111ed565b840191505092915050565b6000602082019050818103600083015261125181846111fe565b905092915050565b600080fd5b600073ffffffffffffffffffffffffffffffffffffffff82169050919050565b60006112898261125e565b9050919050565b6112998161127e565b81146112a457600080fd5b50565b6000813590506112b681611290565b92915050565b6000602082840312156112d2576112d1611259565b5b60006112e0848285016112a7565b91505092915050565b6000819050919050565b6112fc816112e9565b811461130757600080fd5b50565b600081359050611319816112f3565b92915050565b6000806040838503121561133657611335611259565b5b6000611344858286016112a7565b92505060206113558582860161130a565b9150509250929050565b60008115159050919050565b6113748161135f565b82525050565b600060208201905061138f600083018461136b565b92915050565b61139e816112e9565b82525050565b60006020820190506113b96000830184611395565b92915050565b6000806000606084860312156113d8576113d7611259565b5b60006113e6868287016112a7565b93505060206113f7868287016112a7565b92505060406114088682870161130a565b9150509250925092565b60006020828403121561142857611427611259565b5b60006114368482850161130a565b91505092915050565b6000819050919050565b600061146461145f61145a8461125e565b61143f565b61125e565b9050919050565b600061147682611449565b9050919050565b60006114888261146b565b9050919050565b6114988161147d565b82525050565b60006020820190506114b3600083018461148f565b92915050565b6114c28161127e565b82525050565b60006020820190506114dd60008301846114b9565b92915050565b600080604083850312156114fa576114f9611259565b5b6000611508858286016112a7565b9250506020611519858286016112a7565b9150509250929050565b7f4e487b7100000000000000000000000000000000000000000000000000000000600052602260045260246000fd5b6000600282049050600182168061156a57607f821691505b6020821081141561157e5761157d611523565b5b50919050565b7f596f7520617265206e6f7420746865206f776e65720000000000000000000000600082015250565b60006115ba6015836111a9565b91506115c582611584565b602082019050919050565b600060208201905081810360008301526115e9816115ad565b9050919050565b7f4e487b7100000000000000000000000000000000000000000000000000000000600052601160045260246000fd5b600061162a826112e9565b9150611635836112e9565b925082821015611648576116476115f0565b5b828203905092915050565b7f4d6967726174696f6e206973206e6f7420737461727465640000000000000000600082015250565b60006116896018836111a9565b915061169482611653565b602082019050919050565b600060208201905081810360008301526116b88161167c565b9050919050565b7f596f752068617665206e6f20746f6b656e730000000000000000000000000000600082015250565b60006116f56012836111a9565b9150611700826116bf565b602082019050919050565b60006020820190508181036000830152611724816116e8565b9050919050565b7f596f752068617665206e6f7420656e6f75676820746f6b656e73000000000000600082015250565b6000611761601a836111a9565b915061176c8261172b565b602082019050919050565b6000602082019050818103600083015261179081611754565b9050919050565b60006117a2826112e9565b91506117ad836112e9565b9250827fffffffffffffffffffffffffffffffffffffffffffffffffffffffffffffffff038211156117e2576117e16115f0565b5b828201905092915050565b600060408201905061180260008301856114b9565b61180f6020830184611395565b9392505050565b7f596f75206172652061206e6f74207468652063616e6469646174000000000000600082015250565b600061184c601a836111a9565b915061185782611816565b602082019050919050565b6000602082019050818103600083015261187b8161183f565b9050919050565b7f596f752063616e2063726561746520746f6b656e206f6e6c792066726f6d204d60008201527f6967726174696f6e206167656e74000000000000000000000000000000000000602082015250565b60006118de602e836111a9565b91506118e982611882565b604082019050919050565b6000602082019050818103600083015261190d816118d1565b9050919050565b7f4d6967726174696f6e2063616e6074206265206368616e676564000000000000600082015250565b600061194a601a836111a9565b915061195582611914565b602082019050919050565b600060208201905081810360008301526119798161193d565b9050919050565b7f4f6e6c79204d6967726174696f6e204167656e742063616e2066696e616c697a60008201527f65206d6967726174696f6e000000000000000000000000000000000000000000602082015250565b60006119dc602b836111a9565b91506119e782611980565b604082019050919050565b60006020820190508181036000830152611a0b816119cf565b9050919050565b7f4d6967726174696f6e20616c7265616479207374617274656400000000000000600082015250565b6000611a486019836111a9565b9150611a5382611a12565b602082019050919050565b60006020820190508181036000830152611a7781611a3b565b905091905056fea2646970667358221220d8f03f8836791bc611b110bbec823bd5240f2ca99e6e8d6588c620bd0775f8e264736f6c634300080a0033",
  "immutableReferences": {},
  "source": "// SPDX-License-Identifier: MIT\npragma solidity >=0.5.0 <0.9.0;\nimport \"./Owned.sol\";\nimport \"./MigrationAgent.sol\";\n\ncontract SeverToken is Owned {\n    string public name;\n    string public symbol;\n    uint256 public totalSupply = 0;\n    mapping(address => uint256) public balanceOf;\n    mapping(address => mapping(address => uint256)) public allowance;\n    MigrationAgent public migrationAgent;\n    uint256 public totalMigrated;\n    bool public isMigrationStarted;\n\n    event Transfer(address indexed from, address indexed to, uint256 value);\n\n    event Approval(address indexed _owner, address indexed _spender, uint256 _value);\n\n    event Migrate(address indexed _from, address indexed _to, uint256 _value);\n\n    constructor(string memory tokenName, string memory tokenSymbol) {\n        name = tokenName;\n        symbol = tokenSymbol;\n    }\n\n    function _transfer(address _from, address _to, uint _value ) internal {\n        require(isMigrationStarted == false, \"Migration already started\");\n        balanceOf[_from] -= _value;\n        balanceOf[_to] += _value;\n        emit Transfer(_from, _to, _value);\n    }\n\n    function transfer(address _to, uint256 _value) public returns (bool success) {\n        _transfer(msg.sender, _to, _value);\n        return true;\n    }\n    function transferFrom(address _from, address _to, uint256 _value) public returns(bool success) {\n        require(_value <= allowance[_from][msg.sender]);\n        allowance[_from][msg.sender] -= _value;\n        _transfer(_from, _to, _value);\n        return true;\n    }\n    function approve(address _spender, uint256 _value) public returns (bool success) {\n        allowance[msg.sender][_spender] = _value;\n        emit Approval(msg.sender, _spender, _value);\n        return true;\n    }\n    function setMigrationAgent(address _agent) external onlyOwner {\n        require(address(migrationAgent) == address(0), \"Migration can`t be changed\");\n        migrationAgent = MigrationAgent(_agent);\n        isMigrationStarted = true;\n    }\n\n    function migrate(uint256 _value) external {\n        require(isMigrationStarted, \"Migration is not started\");\n        require(_value != 0, \"You have no tokens\");\n        require(_value <= balanceOf[msg.sender], \"You have not enough tokens\");\n        balanceOf[msg.sender] -= _value;\n        totalSupply -= _value;\n        totalMigrated += _value;\n        migrationAgent.migrateFrom(msg.sender, _value);\n        emit Migrate(msg.sender, address(migrationAgent), _value);\n    }\n\n    function createToken(address _target, uint256 _amount) public {\n        require(msg.sender == address(migrationAgent), 'You can create token only from Migration agent');\n        balanceOf[_target] += _amount;\n        totalSupply += _amount;\n        emit Transfer(address(migrationAgent), _target, _amount);\n    }\n\n    function finalizeMigration() public {\n        require(msg.sender == address(migrationAgent), 'Only Migration Agent can finalize migration');\n        isMigrationStarted = false;\n        migrationAgent = MigrationAgent(address(0));\n    }\n\n}   ",
  "sourcePath": "/home/sever/www/blockchain/truffle/contracts/SeverToken.sol",
  "compiler": {
    "name": "solc",
    "version": "0.8.10+commit.fc410830.Emscripten.clang"
  },
  "schemaVersion": "3.4.3",
  "updatedAt": "2021-12-25T11:43:00.504Z",
  "networkType": "ethereum",
  "devdoc": {
    "kind": "dev",
    "methods": {},
    "version": 1
  },
  "userdoc": {
    "kind": "user",
    "methods": {},
    "version": 1
  }
}